:020000040800F2
:10000000F8420020C11B0108B5010008CB1B010804
:10001000B7010008BB010008BF0100080000000094
:10002000000000000000000000000000C301000804
:10003000C501000800000000D71B0108C701000827
:10004000DB1B0108DB1B0108DB1B0108DB1B0108B4
:10005000DB1B0108DB1B0108DB1B0108DB1B0108A4
:10006000DB1B0108DB1B0108DB1B0108DB1B010894
:10007000DB1B0108DB1B0108DB1B0108DB1B010884
:10008000DB1B0108DB1B0108DB1B0108DB1B010874
:10009000DB1B0108DB1B0108DB1B0108DB1B010864
:1000A000DB1B0108DB1B0108DB1B0108DB1B010854
:1000B000DB1B0108D9010008E1010008DB1B010876
:1000C000DB1B0108DB1B0108DB1B0108DB1B010834
:1000D000DB1B0108DB1B0108E9010008DB1B010831
:1000E000DB1B0108DB1B0108DB1B0108DB1B010814
:1000F000DB1B0108DB1B0108DB1B0108DB1B010804
:10010000DB1B0108DB1B0108DB1B0108DB1B0108F3
:10011000DB1B0108F1010008DB1B0108DB1B0108E8
:10012000DB1B0108DB1B0108DB1B0108DB1B0108D3
:10013000DB1B0108DB1B0108DB1B0108DB1B0108C3
:10014000DB1B0108DB1B0108DB1B010839A80008C9
:10015000DB1B0108DB1B0108DB1B0108DB1B0108A3
:10016000DB1B0108DB1B0108DB1B0108DB1B010893
:10017000DB1B0108DB1B0108DB1B0108DB1B010883
:10018000DB1B0108DB1B0108DFF80CD015F03EFD7E
:1001900000480047A1010008F842002000BFFEE728
:1001A00000F05EF90249087001E000F0FFF8FCE79A
:1001B00000000020704700BFFEE700BFFEE700BF61
:1001C000FEE77047704710B50B480068401C0A49AD
:1001D000086006F0DDFD10BD10B506F0CEFF10BDC5
:1001E00010B507F0D1F810BD10B509F0F4FB10BD43
:1001F00010B509F0B2FC10BD9005002010B58C4878
:10020000C089401C8A49C88108468088401C00B2C9
:1002100088800846C088401C00B2C8800846008913
:10022000401C00B2088108464089401C00B2488149
:1002300008468089401C00B2888108460078012861
:1002400004D108464078401C487002E001207849FB
:10025000087008F0B2FC10BD10B5012006F0D7FD03
:1002600003F061FC10BD10B52DED028B002006F0EF
:10027000CEFD00EE100AB8EE400ADFED6E0A80EE09
:10028000201AB0EE418A06F053FD00EE100AB8EED7
:10029000400ADFED680A80EE201A674880ED001AF8
:1002A00007F004FDB0EE480A07F089FF6348D0ED7F
:1002B000063AB0EE633AD0ED053AF0EE632AD0ED9F
:1002C000043AB0EE632AD0ED0C3AF0EE631AD0EDAA
:1002D0000B3AB0EE631AD0ED0A3AF0EE630AF6EE8E
:1002E000003A68EE233AB0EE630A554A554956483B
:1002F00001F078FCB0EE480A01F0CDF85348B0EEBA
:10030000480A04F092FC06F013FD00EE100AB8EE65
:10031000400ADFED480A80EE201A474880ED011AB6
:10032000BDEC028B10BD10B52DED028B022006F046
:100330006EFD00EE100AB8EE400ADFED3E0A80EED8
:10034000201AB0EE418A06F0F3FC00EE100AB8EE77
:10035000400ADFED380A80EE201A374880ED021A95
:10036000B0EE480A00F0BCFB06F0E2FC00EE100A1A
:10037000B8EE400ADFED2F0A80EE201A2E4880EDFD
:10038000031ABDEC028B10BD10B508F097FB10BD31
:1003900010B500F06AFB10BD10B52D492D4805F0D1
:1003A000FFFF08F07EFD0AF0BDFF10BD10B520482C
:1003B000007801283BD12848008800B227490880EE
:1003C000FFF74AFF1A48B0F90400022804DB0020B6
:1003D00017498880FFF747FF1548B0F90600052840
:1003E00004DB00201249C880FFF79DFF1048B0F9D8
:1003F00008000A2804DB00200D490881FFF7C4FF2C
:100400000B48B0F90A00142804DB00200849488191
:10041000FFF7BEFF0648B0F90C00322804DB0020CD
:1004200003498881FFF7B8FF00200149087010BD1B
:10043000540700200024744964070020A4350020DC
:100440002C000020280000202400002094350020EB
:100450003C3200202C2C0020A005002002000020AF
:1004600010B54FF480600AF0DBFF06F02FFC07F0B8
:100470005EFA06F025FD4FF4C87007F083F804F02B
:1004800079FE09F096F84FF4C87006F075FC142058
:1004900007F0EEFC08F018FB134809F029FA00F009
:1004A0004FFA642006F068FC0AF036FF08F0DAF82C
:1004B00080F001000D4908700D48007810B908F06F
:1004C000BEFF0AE00948007810B908F0CFFF04E049
:1004D0000848007808B908F0EDFF042008F04CFB4C
:1004E00006F0D0FC012010BD20A10700140600205A
:1004F000CC0500208206002038B50122FAA1FB4875
:1005000013F070FD0446C4B100221146F6A014F0A9
:1005100062FD044614B14FF0FF3038BD0022F2A155
:10052000F24813F05FFD04463CB10022EEA11046F4
:1005300013F058FD6FF00100EFE7EDA1ED4814F066
:1005400008FA04463CB10022E7A1104613F04AFD28
:100550006FF00200E1E70122E7A1EA4813F06DFD28
:1005600004463CB10022E0A1104613F03BFD6FF0C1
:100570000300D2E76B464022E349E24813F00FFE46
:100580000446009878B3DF4814F068F80122DFA130
:10059000DC4813F052FD04463CB10022D2A11046C3
:1005A00013F020FD6FF00300B7E76B46C022D94976
:1005B000D44813F0F4FD0446009848B1D14814F033
:1005C0004DF80022C8A1104613F00CFD0120A4E74D
:1005D000CC4814F043F80022C3A1104613F002FDEA
:1005E0006FF0030099E7FFE7C64814F037F80022E0
:1005F000BDA1104613F0F6FC6FF004008DE738B58E
:100600000022B9A1B94813F0EDFC0446C4B10022A0
:100610001146B5A014F0DFFC044614B14FF0FF30D2
:1006200038BD0022B0A1B14813F0DCFC04463CB157
:100630000022ADA1104613F0D5FC6FF00100EFE7EA
:10064000ABA1AC4814F085F904463CB10022A6A148
:10065000104613F0C7FC6FF00200E1E70A22A6A1E2
:10066000A84813F0EAFC04463CB100229EA11046C3
:1006700013F0B8FC6FF00300D2E76B464022A249AA
:10068000A04813F085FE044674BB9E4813F0E6FFB5
:100690000A229EA19B4813F0D0FC04463CB10022E4
:1006A00091A1104613F09EFC6FF00300B8E76B4673
:1006B000C0229849934813F06BFE04464CB9914808
:1006C00013F0CCFF002288A1104613F08BFC012010
:1006D000A6E78C4813F0C2FF002283A1104613F056
:1006E00081FC6FF003009BE7864813F0B7FF002200
:1006F0007DA1104613F076FC6FF0040090E710B572
:100700008548814BD3E900219B68C0E90E13426301
:100710007D4BD3E903215B69C0E9111302647F4873
:10072000794B18330ECB08300EC07B4A764B2433FE
:100730000BCB58320BC2744890ED0D0A764880ED11
:10074000190A714890ED0E0A734880ED1A0A744830
:10075000704C1ECC54301EC064386E49D1E905344B
:100760000A69C969C0E91A3442660167694BD3E96D
:1007700009141A6ADB6AC0E91F43C0E91D216948F0
:10078000644BD3E90C41D3E90E23C0E91541C0E91C
:1007900017236049D1E911430A6CC96CC0E91A43B7
:1007A000426601675B49D1E91434D1E91621C0E9F9
:1007B0001D34C0E91F2110BD10B500F07FF905F010
:1007C00096F810BD10B50022012147A014F003FCDB
:1007D0009FED550A4F4880ED040A9FED530A80EDC6
:1007E000000AB7EE000A80ED080A9FED500A80ED7E
:1007F000060A9FED4E0A80ED020A9FED4C0A80ED3D
:100800000A0A9FED4B0A80ED050A9FED490A80ED2B
:10081000010AB0EE000A80ED090AB7EE000A80ED89
:10082000070AB7EE000A80ED030AB7EE000A80ED72
:100830000B0AB6EE000A80ED100AB6EE000A80ED53
:100840000C0A9FED3C0A80ED140A9FED3B0A80EDF7
:10085000120A9FED390A80ED0E0A9FED370A80EDEE
:10086000160A9FED360A80ED110A9FED340A80EDDD
:100870000D0A9FED2E0A80ED150AB7EE000A80EDF5
:10088000200AB7EE000A80ED220AB7EE000A80EDDA
:10089000210AB7EE000A80ED240AB7EE000A80EDC7
:1008A000260AB7EE000A80ED250AB7EE000A80EDB1
:1008B000180AB7EE000A80ED1A0AB7EE000A80EDBA
:1008C000190AB7EE000A80ED1C0AB7EE000A80EDA7
:1008D0001E0AB7EE000A80ED1D0AFFF790FEFFF733
:1008E0000EFFFFF769FF10BD303A000078080020C6
:1008F0002F000000D028002073656E736F722E6287
:10090000696E0000A8180020780700207069642E26
:1009100062696E00B8070020A4350020E8050020B9
:10092000EC280020B02900209A99193FCDCCCC3D6D
:10093000CDCC0C40CDCC4C3FCDCC4C3D9A99993E82
:1009400010B5FFF7D9FD0446002C04DAFFF73AFF93
:10095000012051490870FFF7D2FEFFF72DFF10BDAF
:1009600010B504464D4894E80E0034300EC04C4893
:1009700094E80E000EC0494890ED190A484880EDF1
:100980000D0AFFF73CFE10BD10B50446434894E83D
:100990000E0040300EC0424894E80E000C300EC0ED
:1009A0003E4890ED1A0A3E4880ED0E0AFFF727FEFA
:1009B00010BD10B504463B4894E80E0008300EC048
:1009C000374894E80E0018300EC0FFF718FE10BD2F
:1009D00010B50446314894E80E0058300EC0304837
:1009E00094E80E0024300EC0FFF709FE10BD10B5CC
:1009F0002D482E49D1E916344A6D096E80E81C0055
:100A0000C16001462948D0E91A34426E006FC1E93D
:100A100005340A61C8612548D0E91E34426FD0F818
:100A20008000C1E909340A62C8620A46204CD4E950
:100A30001530D4E91714C2E90E14C2E90C3010467F
:100A40001B49D1E91942D1E91B31C0E91042C0E983
:100A500012311749D1E91D42D1E91F31C0E91442D1
:100A6000C0E91631FFF7CBFD10BD10B51148008865
:100A700020B110480088401C0E4908800D480088AD
:100A80003C2807DD00200B4908800B48007808B996
:100A9000FFF7ADFF10BD000004000020A4350020CA
:100AA00078070020E8050020B8070020EC28002087
:100AB000B02900206A040020BC040020B7EE000A20
:100AC000FC4880ED180AB7EE000A80ED1C0AB7EE6C
:100AD000000A80ED200A9FEDF80A80ED300A704789
:100AE00010B52DED0E8BB0EE408AF448D0ED000A23
:100AF000B0EE600AB3EE0E1ADFEDF10A01F0EBFF83
:100B0000DFEDF00A80EE201AB3EE0E0A21EE000AA5
:100B1000ED4880ED000AE948D0ED010AF1EE600AE7
:100B2000B0EE600AB3EE0E1ADFEDE50A01F0D3FF76
:100B3000DFEDE40A80EE201AB3EE0E0A21EE000A81
:100B4000E14880ED010AE148007818BBDB48D0EDB0
:100B5000030AB0EE600A9FEDDE1ADFEDD90A01F05C
:100B6000D5FFDFEDD80A80EE201A9FEDDA0A21EEDC
:100B7000000ABDEEC00A10EE100A00B200EE100A24
:100B8000F8EEC00AD04890ED020A00EE880A80ED27
:100B9000020A36E0CC4890ED020ACF48D0ED000AB8
:100BA00030EEC00A10EE101A084614F0ACFE41EC0C
:100BB0001C0B18EE100A14F0A6FE41EC1E0B9FED64
:100BC000C70B53EC102B14F01BFE41EC1D0B53EC28
:100BD0001C2B14F015FE41EC1A0BBB4890ED020AD9
:100BE00010EE101A084614F08EFE41EC1B0B53EC6D
:100BF0001A2B14F05EFD41EC190B14F0C7FEB2493C
:100C00008860B148D0ED020AB0EE600A01F0CCFF76
:100C1000AD4880ED020AB348D0ED000AAA4890ED35
:100C2000001A70EE810AB04890ED001A70EEC10A09
:100C3000B0EE600A01F0B8FFAC4880ED000AA948A8
:100C4000D0ED010AA04890ED011A70EE810AA84883
:100C500090ED001A70EEC10AB0EE600A01F0A4FF38
:100C6000A24880ED010A9F48D0ED020A964890ED17
:100C7000021A70EE810A984890ED001A70EEC10ACF
:100C8000B0EE600A01F090FF984880ED020A90ED06
:100C9000000AB5EEC00AF1EE10FA02DD90ED000A8E
:100CA00004E0924890ED000AB1EE400AF3EE0E0A1D
:100CB00080EE201A8D4880ED2D1A90ED010AB5EED8
:100CC000C00AF1EE10FA02DD90ED010A04E0874857
:100CD00090ED010AB1EE400AF3EE0E0A80EE201A02
:100CE000824880ED2E1A90ED020AB5EEC00AF1EEB0
:100CF00010FA02DD90ED020A04E07C4890ED020A51
:100D0000B1EE400AF3EE0E0A80EE201A774880ED2D
:100D10002F1ADFED780A80EE880AD0ED000A90EDF8
:100D2000031A70EEC10A90ED161AF2EE041A21EEC3
:100D3000211A60EE810A20EE200A80ED0C0ADFED18
:100D40006D0A80EE880AD0ED010A90ED041A70EE6B
:100D5000C10A90ED1A1AF2EE041A21EE211A60EE81
:100D6000810A20EE200A80ED0D0ADFED620A80EE96
:100D7000880AD0ED020A90ED051A70EEC10A90EDD6
:100D80001E1AF2EE041A21EE211A60EE810A20EEFC
:100D9000200A80ED0E0A90ED170AD0ED000A60EEF1
:100DA000200A90ED060A00EE880A80ED060A90ED12
:100DB0001B0AD0ED010A60EE200A90ED070A00EE52
:100DC000880A80ED070A90ED1F0AD0ED020A60EE56
:100DD000200A90ED080A00EE880A80ED080A4648CD
:100DE00090ED000AF6EE000A20EE200AF3EE0E0A5D
:100DF00020EE200A3D4880ED090A3F4890ED000AA8
:100E0000F6EE000A20EE200AF3EE0E0A20EE200A8B
:100E1000364880ED0A0A384890ED000AF6EE000ADE
:100E200020EE200AF3EE0E0A20EE200A2F4880ED75
:100E30000B0A90ED060AD0ED090AF1EE600AB4EE55
:100E4000E00AF1EE10FA04D290ED090AB1EE400A80
:100E50000FE0264890ED060AD0ED090AB4EEE00A4C
:100E6000F1EE10FA02DD90ED090A02E01F4890ED64
:100E7000060A1E4880ED060A90ED070AD0ED0A0A20
:100E8000F1EE600AB4EEE00AF1EE10FA04D290ED51
:100E90000A0AB1EE400A34E0144890ED070AD0ED9A
:100EA0000A0AB4EEE00AF1EE10FA27DD90ED0A0A24
:100EB00027E00000EC280020CDCC4C3E2C2C00205C
:100EC000000000000000FA43742A00200C000020FB
:100ED00000002042000016432C0000201F85EB512B
:100EE000B81E0940802A002024000020B0290020DC
:100EF000280000200AD7A33B10000020FE4890EDF8
:100F0000070AFD4880ED070A90ED080AD0ED0B0AAC
:100F1000F1EE600AB4EEE00AF1EE10FA04D290EDC0
:100F20000B0AB1EE400A0FE0F34890ED080AD0ED4D
:100F30000B0AB4EEE00AF1EE10FA02DD90ED0B0AB6
:100F400002E0ED4890ED080AEB4880ED080A90EDCC
:100F5000000A80ED030A90ED010A80ED040A90ED8D
:100F6000020A80ED050A90ED000ADFEDE40AB4EE16
:100F7000E00AF1EE10FA02D29FEDE00A0FE0DE483F
:100F800090ED000ADFEDDE0AB4EEE00AF1EE10FAB1
:100F900002DD9FEDDB0A02E0D74890ED000AD6485B
:100FA00080ED000A90ED010ADFEDD40AB4EEE00A0C
:100FB000F1EE10FA02D29FEDD10A0FE0CE4890ED8B
:100FC000010ADFEDCF0AB4EEE00AF1EE10FA02DD1D
:100FD0009FEDCB0A02E0C84890ED010AC64880EDBB
:100FE000010A90ED020ADFEDC50AB4EEE00AF1EE67
:100FF00010FA02D29FEDC10A0FE0BF4890ED020A3D
:10100000DFEDBF0AB4EEE00AF1EE10FA02DD9FED6B
:10101000BC0A02E0B84890ED020AB74880ED020A27
:1010200090ED000AD0ED0C0A30EE200AD0ED060A51
:1010300030EE200AD0ED150A20EE200A80ED120ACB
:1010400090ED010AD0ED0D0A30EE200AD0ED070A2E
:1010500030EE200AD0ED190A20EE200A80ED130AA6
:1010600090ED020AD0ED0E0A30EE200AD0ED080A0B
:1010700030EE200AD0ED1D0A20EE200A80ED140A81
:10108000BDEC0E8B10BD10B52DED048B84B0F0EED1
:10109000408AB0EE609AB0EE418A9FED9A0AB4EEB3
:1010A000C08AF1EE10FA02D29FED960A0BE09FED96
:1010B000960AB4EEC08AF1EE10FA02DD9FED920AB4
:1010C00001E0B0EE480AB0EE408AB1EE680A30EEB8
:1010D000090A30EE080A8DED000A38EE890A30EE72
:1010E000480A8DED010A38EEC90A30EE080A8DED86
:1010F000020AB1EE680A30EE490A30EE480A8DED78
:10110000030A00243BE0684600EB840090ED000AEF
:10111000DFED7E0AB4EEE00AF1EE10FA02D29FEDA6
:101120007B0A13E0684600EB840090ED000ADFEDD7
:10113000780AB4EEE00AF1EE10FA02DD9FED740ACF
:1011400004E0684600EB840090ED000A684600EB7E
:10115000840080ED000A684600EB8400D0ED000AB0
:101160006C4890ED000A6C4890ED001A01EE200AE0
:101170006A4800EB840080ED000A601CC4B2042CB5
:10118000C1DB6748007800285FD06648007870BBF4
:10119000002429E0614800EB840090ED000ADFEDB7
:1011A000620AB4EEE00AF1EE10FA02D29FED5E0A96
:1011B00013E05A4800EB840090ED000ADFED540A7A
:1011C000B4EEE00AF1EE10FA02DD9FED510A04E000
:1011D000524800EB840090ED000A504800EB840078
:1011E00080ED000A601CC4B2042CD3DB3AE0FFE7B8
:1011F000002427E0494800EB840090ED000AB5EE9A
:10120000C00AF1EE10FA02D21FEDD30A13E04348F0
:1012100000EB840090ED000ADFED3D0AB4EEE00A39
:10122000F1EE10FA02DD9FED3A0A04E03B4800EBD4
:10123000840090ED000A394800EB840080ED000A3C
:10124000601CC4B2042CD5DB0CE0002408E01FEDC8
:10125000E40A324800EB840080ED000A601CC4B24E
:10126000042CF4DB00240EE02C4800EB840090ED0D
:10127000000ABDEEC00A10EE100A00B22B4921F898
:101280001400601CC4B2042CEEDB4FF47A7200210F
:10129000264806F0E6FA04B0BDEC048B10BD10B58C
:1012A0002DED028BB0EE408A214890ED020A5FEDF1
:1012B000FB0A30EE200A1F4880ED000A154890ED29
:1012C000000A9FED111AC0EE010A1B4890ED000ABA
:1012D00070EEC00A9FED190A28EE001A90ED000A80
:1012E00001EE200A80ED000A90ED000AB5EEC00A7A
:1012F000F1EE10FA27D223E0B02900200000B4C29A
:101300000000B4420000C8C30000C84300007AC413
:1013100000007A440800002010000020C02A0020AD
:10132000BC0400200C0000200000484314000020F2
:101330002C2C00201C000020200000203433FB4116
:101340009FEDFE0A0FE0FE4890ED000AF7EE000A5E
:10135000B4EEE00AF1EE10FA02DDB7EE000A02E0A8
:10136000F74890ED000AF74880ED000AF64890ED46
:10137000000ADFEDF60AB4EEE00AF1EE10FA03D24D
:101380000120F349087002E00020F1490870F1489B
:10139000007878B3F0480078E8B9EB4890ED000A9F
:1013A000B5EEC00AF1EE10FA02D29FEDE40A0FE0AA
:1013B000E54890ED000ADFEDE90AB4EEE00AF1EE4F
:1013C00010FA02DD9FEDE50A02E0DF4890ED000A29
:1013D000DD4880ED000AB7EE001AE1480078DA49EE
:1013E000D1ED000AB0EE480A04F001FBDD4880EDC3
:1013F000000A2FE0FFE7D8480078E8B9D24890ED1E
:10140000000AB5EEC00AF1EE10FA02D29FEDCB0A47
:101410000FE0CD4890ED000ADFEDD30AB4EEE00A0C
:10142000F1EE10FA02DD9FEDD00A02E0C64890ED21
:10143000000AC54880ED000A9FEDC01AC848007830
:10144000C149D1ED000AB0EE480A04F0D0FAC5480F
:1014500080ED000AC34890ED000AB5EEC00AF1EE37
:1014600010FA02D29FEDB50A0FE0BE4890ED000AD7
:10147000DFEDBE0AB4EEE00AF1EE10FA02DD9FEDF8
:10148000BB0A02E0B74890ED000AB64880ED000ABA
:10149000BDEC028B10BD00B52DED028B83B0B0EE1C
:1014A000408AB34890ED120AF3EE0E0A80EE201A3D
:1014B0009FEDB00A21EE000A8DED000AD0ED130A6F
:1014C000B3EE0E1A80EE810ADFEDAA0A20EE200AA2
:1014D0008DED010A90ED140AF3EE0E0A80EE201A4B
:1014E0009FEDA50A21EE000A8DED020A9DED000A8E
:1014F000A24880ED000A9DED010A80ED010A9DEDF4
:10150000020A80ED020A90ED000ADFED9D0AB4EEBA
:10151000E00AF1EE10FA02D29FED990A0FE0974827
:1015200090ED000ADFED930AB4EEE00AF1EE10FA56
:1015300002DD9FED900A02E0904890ED000A8F488E
:1015400080ED000A90ED010ADFED8D0AB4EEE00AAD
:10155000F1EE10FA02D29FED8A0A0FE0874890ED73
:10156000010ADFED840AB4EEE00AF1EE10FA02DDC2
:101570009FED800A02E0814890ED010A7F4880EDEE
:10158000010A90ED020ADFED7F0AB4EEE00AF1EE07
:1015900010FA02D29FED7B0A0FE0784890ED020A24
:1015A000DFED750AB4EEE00AF1EE10FA02DD9FED10
:1015B000720A02E0714890ED020A704880ED020A5A
:1015C000DFED710A80EE880A7048D0ED0A0A704893
:1015D00090ED001A70EEC10A20EE200A6D4880EDF1
:1015E0000F0ADFED690A80EE880A6848D0ED0B0A21
:1015F000F1EE600A664890ED011A70EEC10A20EE25
:10160000200A644880ED100ADFED5F0A80EE880A48
:101610005E48D0ED0C0AF1EE600A5D4890ED021ACA
:1016200070EEC10A20EE200A5A4880ED110A534894
:1016300090ED000A5548D0ED0A0A30EE600AF7EE48
:10164000000A20EE200A534880ED000A4B4890ED36
:10165000010A4E48D0ED0B0A30EE200AF7EE000AE0
:1016600020EE200A4B4880ED010A444890ED020A22
:101670004648D0ED0C0A30EE200AF7EE000A20EEC4
:10168000200A444880ED020A90ED000AB5EEC00A37
:10169000F1EE10FA02DD90ED000A04E03D4890ED15
:1016A000000AB1EE400ADFED330A80EE201A394815
:1016B00080ED2D1A90ED010AB5EEC00AF1EE10FA98
:1016C00002DD90ED010A04E0324890ED010AB1EE2E
:1016D000400ADFED280A80EE201A2E4880ED2E1AEF
:1016E00090ED020AB5EEC00AF1EE10FA02DD90EDBF
:1016F000020A04E0274890ED020AB1EE400ADFED4D
:101700001E0A80EE201A234880ED2F1ADFED1E0AF4
:1017100080EE880AD0ED160A90ED0F1AFAEE041A40
:1017200021EE211A60EE810A20EE200A80ED0C0ADB
:10173000DFED150A80EE880A2EE0000000000000B0
:1017400020000020100000201C0000200000C842E3
:101750000C0000203C320020850400200000FA43E9
:10176000BC040020080000200000AF4300004844F3
:10177000B02900200000964300001643982A00205C
:10178000000096C3000016C36F12033BA43500206F
:10179000A42A0020EC280020D0ED1A0A90ED101A9F
:1017A000FAEE041A21EE211A60EE810A20EE200AD8
:1017B00080ED0D0A5FED0C0A80EE880AD0ED1E0A5E
:1017C00090ED111AFAEE041A21EE211A60EE810A48
:1017D00020EE200A80ED0E0A90ED000AD0ED0F0AEF
:1017E00030EE600AD0ED170A60EE200A90ED060A8E
:1017F00000EE880A80ED060A90ED010AD0ED100A8D
:1018000030EE600AD0ED1B0A60EE200A90ED070A68
:1018100000EE880A80ED070A90ED020AD0ED110A69
:1018200030EE600AD0ED1F0A60EE200A90ED080A43
:1018300000EE880A80ED080AE24890ED000AF6EE14
:10184000000A20EE200A5FED350A20EE200ADE486D
:1018500080ED090ADB4890ED000AF6EE000A20EE62
:10186000200A5FED3C0A20EE200AD74880ED0A0AE4
:10187000D44890ED000AF6EE000A20EE200A5FED53
:10188000430A20EE200AD04880ED0B0A90ED060AAC
:10189000D0ED090AF1EE600AB4EEE00AF1EE10FABA
:1018A00004D290ED090AB1EE400A0FE0C64890ED6F
:1018B000060AD0ED090AB4EEE00AF1EE10FA02DDF4
:1018C00090ED090A02E0C04890ED060ABE4880ED9E
:1018D000060A90ED070AD0ED0A0AF1EE600AB4EEAE
:1018E000E00AF1EE10FA04D290ED0A0AB1EE400AD5
:1018F0000FE0B54890ED070AD0ED0A0AB4EEE00A11
:10190000F1EE10FA02DD90ED0A0A02E0AE4890ED29
:10191000070AAD4880ED070A90ED080AD0ED0B0AE2
:10192000F1EE600AB4EEE00AF1EE10FA04D290EDA6
:101930000B0AB1EE400A0FE0A34890ED080AD0ED83
:101940000B0AB4EEE00AF1EE10FA02DD90ED0B0A9C
:1019500002E09D4890ED080A9B4880ED080A90ED52
:10196000300AF7EE000A30EEC00AD0ED150A20EE7C
:10197000200AD0ED000A90ED0C1A70EE810A90ED6D
:10198000061A70EE810A60EE200A90ED301A8F4838
:10199000D0ED2D1A9FED8E0A9FED8E2A02EE210AC0
:1019A000B5EEC00AF1EE10FA02D21FED9C0A1BE060
:1019B0008648D0ED2D1A9FED860A9FED862A02EE0D
:1019C000210AF7EE001AB4EEE10AF1EE10FA02DD98
:1019D000B7EE000A08E07D48D0ED2D1A9FED7C0A95
:1019E0009FED7C2A02EE210A21EE000A7A4890ED52
:1019F000001A40EE010AB0EE000A20EE800A72489A
:101A000080ED120A90ED300AF7EE000A30EEC00ABF
:101A1000D0ED190A20EE200AD0ED010A90ED0D1A42
:101A200070EE810A90ED071A70EE810A60EE200ACE
:101A300090ED301A6548D0ED2E1A9FED650A9FEDA6
:101A4000652A02EE210AB5EEC00AF1EE10FA02D2C2
:101A50001FEDC60A1BE05D48D0ED2E1A9FED5C0A13
:101A60009FED5C2A02EE210AF7EE001AB4EEE10ABD
:101A7000F1EE10FA02DDB7EE000A08E05348D0EDAF
:101A80002E1A9FED530A9FED532A02EE210A21EEF2
:101A9000000A514890ED011A40EE010AB0EE000A2A
:101AA00020EE800A484880ED130A90ED300AF7EEE8
:101AB000000A30EEC00AD0ED1D0A20EE200AD0ED5B
:101AC000020A90ED0E1A70EE810A90ED081A70EE7F
:101AD000810A60EE200A90ED301A3C48D0ED2F1AB2
:101AE0009FED3B0A9FED3B2A02EE210AB5EEC00AAC
:101AF000F1EE10FA02D21FEDEF0A1BE03348D0EDF1
:101B00002F1A9FED330A9FED332A02EE210AF7EEDA
:101B1000001AB4EEE10AF1EE10FA02DDB7EE000AA7
:101B200008E02A48D0ED2F1A9FED290A9FED292AB7
:101B300002EE210A21EE000A274890ED021A40EE3B
:101B4000010AB1EE000A20EE800A1F4880ED140A57
:101B5000B0EE480AFFF7A3FB1B48D0ED141AB0EE15
:101B6000611AD0ED131AF0EE610AD0ED121AB0EE40
:101B7000610AFFF788FA144890ED000A80ED030A25
:101B800090ED010A80ED040A90ED020A80ED050A4D
:101B9000124890ED0A0A124880ED000A0F4890EDB5
:101BA0000B0AB1EE400A0E4880ED010A0B4890ED99
:101BB0000C0AB1EE400A0A4880ED020A03B0BDECFF
:101BC000028B00BD10000020EC280020B02900206E
:101BD0006666E63ECDCC0C3F982A0020A435002056
:101BE000A42A002070B52DED108BB0EE408AB0EE27
:101BF00060EAF0EE41EAB0EE61FAF0EE429AB0EE41
:101C0000629AF0EE438A04460D4616469FEDFE0AA0
:101C100028EE000AF3EE040A20EE200AF0EE40AAB5
:101C2000FA48D0ED080A60EEA00A90ED091AD0ED4E
:101C3000091A41EE210A90ED0A1AD0ED0A1A41EE76
:101C4000210AB0EE600A00F0B1FDF14880ED000A13
:101C500090ED000AB5EEC00AF1EE10FA38D0EB486C
:101C6000D0ED080AEA4890ED001A80EE810AE948B2
:101C7000D0ED000A70EE600A90ED000A0AEEA00AAC
:101C800080ED000AE148D0ED090AE14890ED001A24
:101C900080EE810ADF48D0ED010A70EE600A90ED17
:101CA000010A0AEEA00A80ED010AD848D0ED0A0A1E
:101CB000D74890ED001A80EE810AD648D0ED020A8E
:101CC00070EE600A90ED020A0AEEA00A80ED020AA8
:101CD000D14AD049D14803F001FDCF48D0ED000AE8
:101CE00060EEA00A90ED011AD0ED011A41EE210A32
:101CF000B0EE600A00F05AFDC94880ED000AC648FF
:101D000090ED000AB5EEC00AF1EE10FA36D090ED73
:101D1000010AB5EEC00AF1EE10FA2FD090ED020ADA
:101D2000B5EEC00AF1EE10FA28D0BD4890ED000AD9
:101D3000B5EEC00AF1EE10FA20D0B74890ED000AD7
:101D4000B748D0ED000A80EE201AB0EE41BAB24892
:101D500090ED010AB248D0ED000A80EE201AF0EEB4
:101D600041BAF0EE4B0AB0EE6B0A00F064FCDFED16
:101D7000AD0A20EE200AAC4880ED000AAB4890ED99
:101D8000010AD0ED030A20EE200AD0ED000A90ED02
:101D9000021A00EEC10AF0EE000A20EE200A9F4867
:101DA00080ED000AA14890ED000AD0ED010A20EE76
:101DB000200AD0ED020A90ED031A00EE810AF0EE3F
:101DC000000A20EE200A954880ED010A974890ED20
:101DD000010A20EE000AD0ED020A90ED021A00EE90
:101DE000810AF7EE000AB0EE001A41EE400A8B4875
:101DF000C0ED020A8E48007800285ED08C4800783A
:101E000002280CD19FED8B0A8B4880ED000A9FEDD4
:101E1000890A80ED010A9FED870A80ED020A864853
:101E200090ED000A7D4890ED001ADFED841AF0EE87
:101E3000690A41EEC10A9FED821A60EE810A9FEDA8
:101E4000811A00EE810A7C4880ED000A90ED010ABB
:101E5000724890ED011ADFED791AF0EE490A41EE71
:101E6000C10A9FED771A60EE810A9FED761A00EEA7
:101E7000810A714880ED010A90ED020A674890EDF1
:101E8000021ADFED6E1AF0EE680A41EEC10A9FED0C
:101E90006C1A60EE810A9FED6B1A00EE810A6648AB
:101EA00080ED020A62480078401C614908700846CB
:101EB0000078522801DB002008705F4890ED000A8E
:101EC000564890ED001ADFED5D1AF0EE690A41EE1A
:101ED000C10A9FED5B1A11EE200A5B4880ED000AF3
:101EE000554890ED010A4D4890ED011ADFED531A67
:101EF000F0EE490A41EEC10A9FED511A11EE200A97
:101F0000514880ED010A4C4890ED020A434890ED9B
:101F1000021ADFED4A1AF0EE680A41EEC10A9FED9F
:101F2000481A11EE200A484880ED020A90ED000A96
:101F30003A48D0ED000A20EE200A4348D0ED010ACD
:101F4000364890ED011A00EE810A3F48D0ED020AB2
:101F5000324890ED021A00EE810A3C4880ED020AF8
:101F600069EEA90A49EE090A48EEA80AB0EE600A2D
:101F700000F01CFC364880ED000AF5EEC09AF1EE48
:101F800010FA02DDB0EE690A01E0B1EE690ADFED98
:101F9000310AB4EEE00AF1EE10FA7DD2B5EEC09A45
:101FA000F1EE10FA02DDB0EE490A01E0B1EE490AA5
:101FB000DFED280AB4EEE00AF1EE10FA6CD2F5EE8D
:101FC000C08AF1EE10FA02DDB0EE680A01E0B1EE6F
:101FD000680ADFED200AB4EEE00AF1EE10FA5BD2F7
:101FE0001B4890ED000AC9EE800AF0EE609A90ED71
:101FF000000AC9EE000AB0EE609A90ED000AC8EE41
:10200000800AF0EE608A27E0C3F5C840E8050020AA
:1020100050000020682B0020382B0020F02A0020E0
:102020004C000020333365425C000020300000206B
:1020300054000020000000005C2B002000008045C0
:102040005C201940CDCC4C3C502B0020442B002070
:10205000400000200080894590ED000ADFEDFE0A77
:10206000B4EEE00AF1EE10FA54DD90ED000A5FEDF7
:10207000070AB4EEE00AF1EE10FA4BD2F74890ED01
:10208000020A20EE090AD0ED010A08EEE00AF4483F
:1020900080ED030AF14800E033E090ED000A20EE05
:1020A000280AD0ED020A09EEE00AED4880ED040AA4
:1020B0001FED2B0A28EE000AF7EE000A20EE20AAF8
:1020C00090ED030AD0ED060A70EE600A90ED060A64
:1020D0000AEE200A80ED060A90ED040AD0ED070A08
:1020E00070EE600A90ED070A0AEE200A80ED070AFA
:1020F00090ED060A80ED000A90ED070A80ED010AD6
:1021000008E01FED340AD64880ED000A1FED370ABB
:1021100080ED010AD24890ED090AD0ED000A1FEDCA
:102120003B1A60EE810AB0EE001A60EE810A00EE02
:10213000880A80ED090A90ED0A0AD0ED010A1FED28
:10214000431A60EE810AB0EE001A60EE810A00EEDA
:10215000880A80ED0A0A90ED0B0AD0ED020A1FED05
:102160004B1A60EE810AB0EE001A60EE810A00EEB2
:10217000880A80ED0B0A90ED090ADFEDBA0AB4EE89
:10218000E00AF1EE10FA02D29FEDB60A0FE0B44871
:1021900090ED090ADFEDB40AB4EEE00AF1EE10FAB0
:1021A00002DD9FEDB10A02E0AD4890ED090AAC48AE
:1021B00080ED090A90ED0A0ADFEDAA0AB4EEE00A02
:1021C000F1EE10FA02D29FEDA70A0FE0A44890EDBD
:1021D0000A0ADFEDA50AB4EEE00AF1EE10FA02DD1C
:1021E0009FEDA10A02E09E4890ED0A0A9C4880ED0E
:1021F0000A0A90ED0B0ADFED9B0AB4EEE00AF1EE5D
:1022000010FA02D29FED970A0FE0954890ED0B0A65
:10221000DFED950AB4EEE00AF1EE10FA02DD9FED73
:10222000920A02E08E4890ED0B0A8D4880ED0B0A71
:102230008A4890ED020AB5EEC00AF1EE10FA2ADDE6
:102240008A48007898B18A48D0ED000A894890ED14
:10225000001A70EEC10AB0EE600A00F0A5FCDFEDD6
:10226000860A20EE200A854880ED000A18E08048A2
:10227000D0ED000A7F4890ED001A70EEC10AB0EE72
:10228000600A00F091FCDFED7E0A20EE200A7B4818
:1022900080ED000A04E01FED990A784880ED000AFD
:1022A0006F4890ED000AD0ED090A30EE200ADFED0C
:1022B000750A20EE200A694890ED001A6F48D0EDAB
:1022C000001AF0EE4E0A41EE610A9FED6F1A00EE21
:1022D000810A634880ED0C0A90ED010AD0ED0A0AEC
:1022E00030EE200ADFED670A20EE200A5B4890ED11
:1022F000011A6248D0ED001AF0EE6E0A41EE610A52
:102300009FED611A00EE810A554880ED0D0A534891
:10231000D0ED020A594890ED001AB0EE4F0A00EED7
:10232000C10ADFED590A20EE200A4D4880ED0E0A61
:10233000564890ED010AB1EE400A4948D0ED0C0A2A
:1023400020EE200A5148D0ED020A454890ED0D1AC2
:1023500000EEC10A4D48D0ED030A414890ED0E1A37
:1023600000EEC10A4948D0ED000A40EE080AC0ED6F
:10237000000A90ED000A3A48D0ED0C0A20EE200A3F
:102380004248D0ED020A364890ED0E1A00EE810A5E
:102390003E48D0ED030A324890ED0D1A00EEC10A16
:1023A0003A48D0ED010A40EE080AC0ED010A90ED6E
:1023B000000A2B48D0ED0D0A20EE200A3348D0ED5C
:1023C000010A274890ED0E1A00EEC10A2F48D0ED01
:1023D000030A234890ED0C1A00EE810A2B48D0ED39
:1023E000020A40EE080AC0ED020A90ED000A1C48FD
:1023F000D0ED0E0A20EE200A2448D0ED010A18483C
:1024000090ED0D1A00EE810A2048D0ED020A144822
:1024100090ED0C1A00EEC10A1C48D0ED030A40EE04
:10242000080AC0ED030AD0ED000A60EEA00A90EDA4
:10243000011AD0ED011A41EE210A90ED021AD0EDF9
:10244000021A41EE210A90ED031AD0ED031A41EE73
:10245000210AB0EE600A1BE000806D45F02A0020E2
:10246000FC2A002034FA0EBD34FA0E3DBC040020D4
:102470005C0000202C00002090C2753D5800002018
:102480006766E63E9A99993E34FA8E3C3000002009
:1024900000F08CF95C4880ED000A5C4890ED000A81
:1024A0005948D0ED000A80EE201A584880ED001AF5
:1024B00090ED010A5448D0ED000A80EE201A5348EE
:1024C00080ED011A90ED020A4F48D0ED000A80EE2F
:1024D000201A4E4880ED021A90ED030A4A48D0EDCA
:1024E000000A80EE201A494880ED031A90ED011A87
:1024F00021EE011AD0ED021A90ED022A01EE821AA5
:10250000F7EE001AB0EE002A42EE411AF0EE610A30
:1025100090ED001AD0ED011A21EE211AD0ED021A29
:1025200090ED032A01EE821AF0EE001A21EE211A34
:10253000B0EE410A00F07FF8DFED350A20EE200A08
:1025400084ED000A314890ED010AD0ED030A20EE37
:10255000200AD0ED000A90ED021A00EEC10AF0EE5A
:10256000000A20EE200A10EE101A084613F0CBF9EC
:1025700041EC1D0BB0EE4D0AF0EE6D0A13F0FCFBC2
:10258000B0EE40CAF0EE60CA9FED220B53EC102B68
:1025900051EC1C0B13F034F941EC1B0B13F0F6F962
:1025A00028601A4890ED001A21EE011AD0ED011AA8
:1025B00090ED012A01EE821AF7EE001AB0EE002A21
:1025C00052EE011AF0EE610A90ED011AB1EE411AD5
:1025D000D0ED021A21EE211AD0ED001A90ED032A57
:1025E00001EEC21AF0EE001A21EE211AB0EE410AF5
:1025F00000F021F8DFED060A20EE200A86ED000A41
:10260000BDEC108B70BD00004400002030000020A5
:10261000333365420000006066A64C40F0EE400A8D
:10262000F5EEC00AF1EE10FA02DBB0EE600A704778
:10263000B1EE600AFBE700B5B0EE403AB0EE602ABA
:10264000B5EEC03AF1EE10FA04D0B5EEC02AF1EEC4
:1026500010FA02D19FEDFB1A99E0B0EE430AFFF7A2
:10266000DDFFF0EE403AB0EE420AFFF7D7FFF0EEA2
:10267000402AF4EEE23AF1EE10FA02D283EEA24AD8
:1026800001E082EEA34A9FEDF00AB4EEC04AF1EEFB
:1026900010FA02D2F0EE441A2DE0DFEDEC0AB6EEAD
:1026A000000A14EE200AF0EE404ABDEEE40A10EEF5
:1026B000100A00EE100AB8EEC00A34EEC00AF0EEBE
:1026C000404AE34901EB800191ED000AF0EE401A27
:1026D000DF4A411C02EB810191ED000A114601EB3A
:1026E0008001D1ED000A70EE600AB0EE610A00EEE2
:1026F000A40AF0EE401AF4EEE32AF1EE10FA20DD1F
:10270000B5EEC02AF1EE10FA0ADBB5EEC03AF1EEF2
:1027100010FA02DBB0EE611A39E0B1EE611A36E070
:102720009FEDCC1AB5EEC03AF1EE10FA04DB31EEB3
:10273000610AB0EE401A2AE031EEC10AB0EE401A4A
:1027400025E0B5EEC03AF1EE10FA10DB9FEDC21AAB
:10275000B5EEC02AF1EE10FA04DB31EE610AB0EEFC
:10276000401A14E031EE210AB0EE401A0FE09FED5E
:10277000BB1AB5EEC02AF1EE10FA04DB31EE210AE5
:10278000B0EE401A03E031EE610AB0EE401AB0EE4E
:10279000410A00BD00B5B0EE405AF0EE605AF0EECE
:1027A000450AB0EE650AFFF746FF00BDB0EE401ADD
:1027B000B7EE080AB0EE402AB6EE000A21EE000A93
:1027C000F0EE401AF0EE410A10EE900AA449A1EB97
:1027D000600000EE900A61EEA02AB7EE080A02EE51
:1027E000E00A20EE200AF0EE400A61EEA02AB7EEE1
:1027F000080A02EEE00A20EE200AF0EE400A21EE7E
:10280000200A704710B52DED0A8BB0EE409AF0EE1D
:10281000609A9FED940B53EC102B51EC190B13F0B5
:1028200085F818D29FED910B53EC102B51EC190B3E
:1028300012F0E6FF41EC1B0B9FED8E0B53EC102BBF
:1028400012F037FF41EC1A0B53EC192B12F0D8FFA2
:1028500041EC180B17E09FED850B53EC102B51EC5E
:10286000190B12F0CDFF41EC1B0B9FED820B53ECCB
:10287000102B12F0C2FF41EC1A0B53EC192B12F083
:10288000BFFF41EC180B9FED770B53EC102B51EC75
:10289000180B13F04BF820D29FED780B53EC102B54
:1028A00051EC180B12F005FF41EC1C0B9FED750B62
:1028B00053EC102B12F0A4FF41EC1B0B9FED6F0BA0
:1028C00053EC102B12F0F5FE41EC1A0B53EC182BC5
:1028D00012F096FF41EC180B1FE09FED680B53ECD4
:1028E000102B51EC180B12F085FF41EC1C0B9FEDE7
:1028F000670B53EC102B12F083FF41EC1B0B9FED89
:102900005F0B53EC102B12F0D4FE41EC1A0B53EC7E
:10291000182B12F075FF41EC180BB0EE480AF0EEE0
:10292000680ABDEC0A8B10BD10B52DED068BB0EE1C
:10293000408AF0EE608A01249FED560B53EC102B79
:1029400051EC180B13F00AF80AD89FED520B53EC18
:10295000102B51EC180B12F04DFF41EC180BA41E7C
:10296000204612F0BFFF41EC190BB0EE480AF0EE22
:10297000680AFFF747FFB0EE40AAF0EE60AA53ECFA
:10298000192B51EC1A0B12F03BFF41EC100BBDEC74
:10299000068B10BD10B52DED088BB0EE408AF0EE21
:1029A000608A01249FED3D0B53EC102B51EC180B6A
:1029B00012F07FFE41EC180B9FED360B53EC102B01
:1029C00051EC180B12F0CAFF0AD8A41E9FED310B70
:1029D00053EC102B51EC180B12F00CFF41EC180BC0
:1029E000204612F07FFF41EC1A0BB0EE480AF0EEE1
:1029F000680AFFF799FFB0EE40BAF0EE60BA53EC08
:102A00001A2B51EC1B0B12F0FBFE41EC190B12F0D0
:102A1000BDFF00EE100ABDEC088B10BDB0EE401AF1
:102A2000B5EEC01AF1EE10FA3CDD31EE600AB5EEFB
:102A3000C00AF1EE10FA37D2DFED021AB0EE610AE9
:102A400032E00000000000008180803B00008043F5
:102A500060000020DB0F4940DB0FC93FDB0FC9BF1F
:102A6000DF59375F00000000000000000000006038
:102A70002FF0D93F00000060305FF43F00000000FD
:102A80000000F03F000000C0CCCCCCBF000000C074
:102A9000CCCCCC3FF1D4C853FB210940F1D4C8536E
:102AA000FB21F93FB0EE410A7047B0EE401AB5EE97
:102AB000C01AF1EE10FA0BD231EE200AB5EEC00AC0
:102AC000F1EE10FA06DD5FED211AB0EE610A01E0C9
:102AD000B0EE410A7047F0EE401AF4EEE01AF1EE63
:102AE00010FA09DD31EEC10AB4EEE00AF1EE10FA97
:102AF0000BD2B0EE600A08E031EE810AB4EEE00AD3
:102B0000F1EE10FA01DDB0EE600A7047F0EE401A07
:102B1000B1EE412A32EE202AB4EEE12AF1EE10FAAB
:102B200009D231EE202AB4EEE12AF1EE10FA02DDEC
:102B3000B0EE600A01E0B0EE610A704710B52DED0D
:102B4000028BB0EE408AF0EE608A9FED730B53EC7F
:102B5000102B51EC180B12F001FF0CD29FED700BF3
:102B600053EC102B51EC180B12F044FE41EC100BFF
:102B7000BDEC028B10BD9FED6C0B53EC102B51EC98
:102B8000180B12F0D3FE0AD29FED650B53EC102BFD
:102B900051EC180B12F08DFD41EC100BE8E7B0EE94
:102BA000480AF0EE680AE3E7F0EE400A9FED600A9B
:102BB000F4EEC00AF1EE10FA04DD9FED5E0A30EE8D
:102BC000C00A70479FED5C0AF4EEC00AF1EE10FAFD
:102BD00004D29FED580A30EE800AF2E7B0EE600AA8
:102BE000EFE7F0EE400AF5EEC00AF1EE10FA02DD72
:102BF000B0EE600A01E0B1EE600A90ED041AB4EEA6
:102C0000C10AF1EE10FA0CDDF5EEC00AF1EE10FA91
:102C100004D291ED040AB1EE400A704791ED040A26
:102C2000FBE7F5EEC00AF1EE10FA02DDB0EE600A45
:102C300001E0B1EE600A90ED031AB4EEC10AF1EEC4
:102C400010FA0CDDF5EEC00AF1EE10FA04D291EDA7
:102C5000030AB1EE400AE0E791ED030ADDE7F5EE85
:102C6000C00AF1EE10FA02DDB0EE600A01E0B1EE4A
:102C7000600A90ED021AB4EEC10AF1EE10FA0CDD12
:102C8000F5EEC00AF1EE10FA04D291ED020AB1EEAF
:102C9000400AC2E791ED020ABFE7F5EEC00AF1EE85
:102CA00010FA02DDB0EE600A01E0B1EE600A90EDCC
:102CB000011AB4EEC10AF1EE10FA0CDDF5EEC00A0D
:102CC000F1EE10FA04D291ED010AB1EE400AA4E748
:102CD00091ED010AA1E7F5EEC00AF1EE10FA02DD6E
:102CE000B0EE600A01E0B1EE600A90ED001AB4EEB9
:102CF000C10AF1EE10FA0CDDF5EEC00AF1EE10FAA1
:102D000004D291ED000AB1EE400A86E791ED000A87
:102D100083E71FEDB40A80E70000000000806640F2
:102D2000000000000080764000000000008066C0C7
:102D3000000034430000B443000034C370B50446BF
:102D40000D462946204606F082FE70BD70B5044649
:102D50000D46AA20FE4908704870EF2088700220B6
:102D6000C8700846047145710026002005E0F84946
:102D7000095C3144CEB2411CC8B20628F7DBF448E6
:102D800086710721FFF7DAFF70BD70B504460D4666
:102D9000AA20EF4908704870EE2088700220C870A1
:102DA0000846047145710026002005E0E849095CE9
:102DB0003144CEB2411CC8B20628F7DBE448867124
:102DC0000721FFF7BBFF70BD2DE9F0432DED028B0E
:102DD00083B005460E4617469846B0EE408A00245A
:102DE000AA222146641CDA4842542146641C4254FB
:102DF00004222146641C425400222146641C425491
:102E00002146641C45542146641C465401979DF894
:102E100007202146641C42549DF806202046611C70
:102E2000CCB2CB490A549DF805202046611CCCB297
:102E3000C7490A549DF804202046611CCCB2C449FD
:102E40000A54CDF804809DF807202046611CCCB2BE
:102E5000BF490A549DF806202046611CCCB2BC49EB
:102E60000A549DF805202046611CCCB2B8490A548A
:102E70009DF804202046611CCCB2B5490A549FED50
:102E8000B50A28EE000ABDEEC00A10EE100A00B224
:102E900002909DF809202046611CCCB2AC490A542E
:102EA0009DF808202046611CCCB2A9490A54201F75
:102EB000C8704FF00009002006E0A549095C4944AC
:102EC00001F0FF09411CC8B2A042F6DB2046611C9C
:102ED000CCB29F4901F8009021469D48FFF72EFF94
:102EE00003B0BDEC028BBDE8F08370B52DED0A8B0D
:102EF00082B00546B0EE408AF0EE608AB0EE419AAC
:102F0000F0EE619AB0EE42AAF0EE62AAB0EE43BAD9
:102F1000F0EE63BAB0EE44CA0024AA222146641C33
:102F20008B4842542146641C425405F10F00C2B242
:102F30002146641C8648425400222146641C4254A7
:102F40009FED850A28EE000ABDEEC00A10EE100AB9
:102F500000B201909DF805202146641C7C48425433
:102F60009DF804202146641C42549FED7B0A28EE04
:102F7000800ABDEEC00A10EE100A00B201909DF862
:102F800005202146641C724842549DF804202046C6
:102F9000611CCCB26E490A549FED6F0A29EE000AFB
:102FA000BDEEC00A10EE100A00B201909DF8052097
:102FB0002046611CCCB266490A549DF80420204684
:102FC000611CCCB262490A549FED630A29EE800A63
:102FD000BDEEC00A10EE100A00B201909DF8052067
:102FE0002046611CCCB25A490A549DF80420204660
:102FF000611CCCB256490A549FED570A2AEE000ACA
:10300000BDEEC00A10EE100A00B201909DF8052036
:103010002046611CCCB24E490A549DF8042020463B
:10302000611CCCB24A490A549FED4B0A2AEE800A31
:10303000BDEEC00A10EE100A00B201909DF8052006
:103040002046611CCCB242490A549DF80420204617
:10305000611CCCB23E490A549FED3F0A2BEE000A98
:10306000BDEEC00A10EE100A00B201909DF80520D6
:103070002046611CCCB236490A549DF804202046F3
:10308000611CCCB232490A549FED330A2BEE800A00
:10309000BDEEC00A10EE100A00B201909DF80520A6
:1030A0002046611CCCB22A490A549DF804202046CF
:1030B000611CCCB226490A549FED270A2CEE000A67
:1030C000BDEEC00A10EE100A00B201909DF8052076
:1030D0002046611CCCB21E490A549DF804202046AB
:1030E000611CCCB21A490A54201FC8700026002067
:1030F00005E01749095C3144CEB2411CC8B2A04278
:10310000F7DB2046611CCCB211490E542146104811
:10311000FFF714FE02B0BDEC0A8B70BDF8B5054692
:103120000E460024AA222146641C09484254214626
:10313000641C425405222146641C4254002221464C
:10314000641C425400959DF801202146641C05E052
:10315000882B00200000C84200007A4442549DF8A9
:1031600000202146641C425400969DF8012021460F
:10317000641C42549DF800202146601CC4B2FE48E5
:103180004254201FFC49C8700027002005E0FA497E
:10319000095C3944CFB2411CC8B2A042F7DB2046DB
:1031A000611CCCB2F4490F542146F348FFF7C6FD29
:1031B000F8BD7FB50024AA222146641CEE48425483
:1031C0002146641C425406222146641C42540022BB
:1031D0002146641C42549DF801202146641C42543F
:1031E0009DF800202146641C42549DF8052021468C
:1031F000641C42549DF804202046611CCCB2DE4978
:103200000A549DF809202046611CCCB2DA490A54C0
:103210009DF808202046611CCCB2D7490A549DF87D
:103220000D202046611CCCB2D3490A549DF80C20D5
:103230002146601CC4B2D04842549DF8212020464B
:10324000611CCCB2CC490A549DF820202046611C58
:10325000CCB2C9490A549DF825202046611CCCB245
:10326000C5490A549DF824202046611CCCB2C249AD
:103270000A549DF829202046611CCCB2BE490A544C
:103280009DF828202046611CCCB2BB490A549DF809
:103290002D202046611CCCB2B7490A549DF82C2041
:1032A0002046611CCCB2B4490A54201FC8700025C6
:1032B000002005E0B049095C2944CDB2411CC8B2E8
:1032C000A042F7DB2046611CCCB2AB490D5421462D
:1032D000A948FFF733FD7FBD7FB50024AA22214610
:1032E000641CA54842542146641C425403222146D2
:1032F000641C425400222146641C42549DF8012063
:103300002146641C42549DF800202146641C42540E
:103310009DF805202146641C42549DF80420204657
:10332000611CCCB294490A549DF809202046611CC6
:10333000CCB291490A549DF808202046611CCCB2B9
:103340008D490A549DF80D202046611CCCB28A4953
:103350000A549DF80C202046611CCCB286490A54C0
:103360009DF821202046611CCCB283490A549DF867
:1033700020202146601CC4B27F4842549DF825207D
:103380002046611CCCB27C490A549DF8242020467A
:10339000611CCCB278490A549DF829202046611C52
:1033A000CCB275490A549DF828202046611CCCB245
:1033B00071490A549DF82D202046611CCCB26E49FB
:1033C0000A549DF82C202046611CCCB26A490A544C
:1033D0009DF831202046611CCCB267490A549DF803
:1033E00030202046611CCCB263490A549DF8352038
:1033F0002046611CCCB260490A549DF83420204616
:10340000611CCCB25C490A54201FC8700025002002
:1034100005E05949095C2944CDB2411CC8B2A0421B
:10342000F7DB2046611CCCB253490D54214652486B
:10343000FFF784FC7FBD73B50024AA222146641CDB
:103440004D4842542146641C425407222146641CC4
:10345000425400222146641C42549DF80320214618
:10346000641C42549DF802202146641C42549DF87D
:1034700001202146641C42549DF800202046611C16
:10348000CCB23D490A549DF805202046611CCCB2BF
:1034900039490A549DF804202046611CCCB23649B3
:1034A0000A54201FC8700025002005E03249095C3D
:1034B0002944CDB2411CC8B2A042F7DB2046611CB2
:1034C000CCB22D490D5421462B48FFF737FC7CBD6B
:1034D0002DE9F84F05460E4617469846DDE90AAB3A
:1034E0000024AA222146641C234842542146641C1D
:1034F000425402222146641C425400222146641C8C
:10350000425400959DF801202146641C42549DF8C8
:1035100000202146641C425400969DF8012021465B
:10352000641C42549DF800202146601CC4B212481D
:10353000425400979DF801202046611CCCB20E49F0
:103540000A549DF800202046611CCCB20A490A5456
:10355000CDF800809DF801202046611CCCB20649C0
:103560000A549DF800202046611CCCB202490A543E
:10357000CDF800A002E00000882B00209DF801207B
:103580002046611CCCB2FE490A549DF8002020461A
:10359000611CCCB2FA490A54CDF800B09DF8012064
:1035A0002146601CC4B2F64842549DF800202146D2
:1035B000601CC4B2F24842540C9800909DF801205F
:1035C0002046611CCCB2EE490A549DF800202046EA
:1035D000611CCCB2EA490A540D9800909DF8012074
:1035E0002046611CCCB2E6490A549DF800202046D2
:1035F000611CCCB2E2490A540E9800909DF801205B
:103600002046611CCCB2DE490A549DF800202046B9
:10361000611CCCB2DA490A54002000909DF80120C8
:103620002046611CCCB2D6490A549DF800202046A1
:10363000611CCCB2D2490A54201FC8704FF0000957
:10364000002006E0CE49095C494401F0FF09411C15
:10365000C8B2A042F6DB2046611CCCB2C84901F8D2
:1036600000902146C648FFF769FBBDE8F88F38B5E2
:103670000024AA222146641CC14842542146641CED
:103680004254F1222146641C425400222146641C0B
:103690004254BC4890ED010ABDEEC00A10EE100A7B
:1036A00000B200909DF801202146641CB4484254A9
:1036B0009DF800202146641C4254B34890ED000A56
:1036C000BDEEC00A10EE100A00B200909DF8012075
:1036D0002146641CAA4842549DF800202046611CE3
:1036E000CCB2A7490A54A74890ED030ABDEEC00A20
:1036F00010EE100A00B200909DF801202046611CD7
:10370000CCB29F490A549DF800202046611CCCB2DF
:103710009B490A549D4890ED040ABDEEC00A10EE84
:10372000100A00B200909DF801202046611CCCB226
:1037300093490A549DF800202046611CCCB2904960
:103740000A54924890ED100ABDEEC00A10EE100A1D
:1037500000B200909DF801202046611CCCB288493F
:103760000A549DF800202046611CCCB284490A54BA
:103770008748008800EB8000400000B200909DF870
:1037800001202046611CCCB27D490A549DF80020DE
:103790002046611CCCB27A490A547E4890ED020A58
:1037A000DFED7D0A20EE200ABDEEC00A10EE100A01
:1037B00000B200909DF801202046611CCCB27049F7
:1037C0000A549DF800202046611CCCB26C490A5472
:1037D000201FC8700025002005E06949095C2944C4
:1037E000CDB2411CC8B2A042F7DB2046611CCCB26E
:1037F00063490D5421466248FFF7A0FA38BD30B541
:103800002DED048B81B0B0EE408AF0EE608AB0EE10
:10381000419A0024AA222146641C59484254214658
:10382000641C42540B222146641C4254002221464F
:10383000641C42549FED590A28EE000ABDEEC00AEE
:1038400010EE100A00B200909DF801202146641C81
:103850004B4842549DF800202146641C42549FED81
:103860004F0A28EE800ABDEEC00A10EE100A00B220
:1038700000909DF801202146641C414842549DF867
:1038800000202046611CCCB23D490A549FED430AFA
:1038900029EE000ABDEEC00A10EE100A00B2009038
:1038A0009DF801202046611CCCB235490A549DF890
:1038B00000202046611CCCB231490A54201FC87038
:1038C0000025002005E02E49095C2944CDB2411CA9
:1038D000C8B2A042F7DB2046611CCCB228490D5487
:1038E00021462748FFF72AFA01B0BDEC048B30BD12
:1038F0002DE9F0412DED048B82B0B0EE408AF0EE60
:10390000608AB0EE419A05460E461746002400959F
:10391000AA222146641C1A4842542146641C42547F
:1039200001222146641C425400222146641C425458
:103930009FED1B0A28EE000ABDEEC00A10EE100A29
:1039400000B201909DF805202146641C0C484254A9
:103950009DF804202146641C42549FED110A28EE74
:10396000800ABDEEC00A10EE100A00B201909DF868
:1039700005202146641C024842549DF8042011E0B1
:10398000882B0020FC34002078050020143500200E
:10399000E43A0020F02A002000401C46CDCCCC3D6B
:1039A0000000C8422046611CCCB2FD490A541FEDFC
:1039B000040A29EE000ABDEEC00A10EE100A00B299
:1039C00001909DF805202046611CCCB2F4490A54B0
:1039D0009DF804202046611CCCB2F1490A549DF8A0
:1039E00003202046611CCCB2ED490A549DF8022008
:1039F0002046611CCCB2EA490A549DF801202046B9
:103A0000611CCCB2E6490A549DF800202146601C96
:103A1000C4B2E34842542046611CCCB2E0490E5483
:103A20002046611CCCB2DE490F54201FC8704FF0F5
:103A30000008002006E0DA49095C414401F0FF0873
:103A4000411CC8B2A042F6DB2046611CCCB2D4496E
:103A500001F800802146D248FFF770F902B0BDECB2
:103A6000048BBDE8F0817FB505460024AA222146DB
:103A7000641CCB4842542146641C42540022214617
:103A8000641C42542146641C42542146641C455423
:103A90009DF805202146641C42549DF804202146CF
:103AA000641C42549DF809202046611CCCB2BC49DC
:103AB0000A549DF808202046611CCCB2B8490A542B
:103AC0009DF80D202046611CCCB2B5490A549DF8E2
:103AD0000C202046611CCCB2B1490A549DF821202B
:103AE0002046611CCCB2AE490A549DF820202046E5
:103AF000611CCCB2AA490A54201FC87000260020BD
:103B000005E0A749095C3144CEB2411CC8B2A042CD
:103B1000F7DB2046611CCCB2A1490E542146A048D7
:103B2000FFF70CF97FBD10B586B09E4800789E491E
:103B3000097890FBF1F201FB12019B480078401ECE
:103B4000814202D1012099494871964800789849EC
:103B5000097890FBF1F201FB120195480078401EB4
:103B6000814202D10120914988718E4800789149A3
:103B7000097890FBF1F201FB12018E480078801E5B
:103B8000814202D1012089494874864800788A49D7
:103B9000097890FBF1F201FB120187480078401E82
:103BA000814202D10120814908717E480078834911
:103BB000097890FBF1F201FB120180480078401E69
:103BC000814202D1012079494873764800787C49C6
:103BD000097890FBF1F201FB120179480078801E10
:103BE000814202D101207149C8736E48007875493D
:103BF000097890FBF1F201FB120172480078801EF7
:103C0000814202D1012069490874664800786E49F2
:103C1000097890FBF1F201FB12016B480078C01E9D
:103C2000814202D10120614988745E480078674969
:103C3000097890FBF1F201FB120164480078C01E84
:103C4000814204D15948C07C401C5849C874554829
:103C50000078401CC0B253490870C82801DD00201C
:103C600008705248007838B1504A51781078FFF700
:103C70008CF800204D4908704C48807848B10020ED
:103C80004A4988705248017852480078FFF75EF838
:103C900036E24648C07860B100204449C8704FF40D
:103CA000C87364224FF4967100900420FFF7DBFE86
:103CB00026E23E480079E0B100203C4908714649BF
:103CC00091ED100A5FEDCB0A20EE200ABDEEC00A8E
:103CD00010EE100A41490A780021414B93ED001A79
:103CE000404BD3ED000A404B93ED000AFFF700FE76
:103CF00006E22E48807C60B100202C4988743B4845
:103D000090ED001ADFED3A0A9FED390AFFF777FDD3
:103D1000F6E12648407C28B1002024494874FFF78A
:103D2000A6FCEDE121484079C8B300201F49487145
:103D3000304890ED0A0ABDEEC00A10EE100A00B23B
:103D40002C4991ED090ABDEEC00A10EE101A0AB214
:103D5000284991ED080ABDEEC00A10EE101A09B20A
:103D6000254B93ED090ABDEEC00A10EE103A1BB2C6
:103D7000CDE90131CDE903201F4890ED080ABDEEE1
:103D8000C00A10EE100A00B21B4C009094ED070A16
:103D9000BDEEC00A10EE104A23B2174C2EE047E0E9
:103DA000882B00206C0400206D040020742B002060
:103DB0006E0400206F0400207004002071040020B5
:103DC0007204002073040020740400207504002095
:103DD000650400206404002014350020BC04002089
:103DE0002C0000202800002024000020780500205E
:103DF00000000000E8050020A435002094ED060A2C
:103E0000BDEEC00A10EE104A22B2FE4C94ED050A37
:103E1000BDEEC00A10EE104A21B2FA4C94ED040A2D
:103E2000BDEEC00A10EE104A20B2FFF751FB67E169
:103E3000F548807970B10020F3498871F348006833
:103E40000A2190FBF1F4F248008881B22046FFF786
:103E5000F2FA55E1EC48407BA8B30020EA494873E8
:103E600040F2DC52EB48C08900F2DC5080B2E949F4
:103E7000898901F2DC5189B2CDE90302E548059256
:103E80000291408900F2DC5080B2E249098901F2D6
:103E9000DC5189B2DF4CCDE90010648804F2DC54B7
:103EA000A3B2DC4C248804F2DC54A2B2D94CE488DE
:103EB00004F2DC54A1B2D74CA48804F2DC54A0B2C2
:103EC000FFF70AFA1CE1FFE7CF48C07BA8B100204A
:103ED000CD49C873009001900290CF4C0390E488C4
:103EE000A3B2CD4CA488A2B2CB4C6488A1B2CA4C78
:103EF0002488A0B2FFF75DF902E1C348007C40B11D
:103F00000020C14908744FF4E4717B20FFF706F9E3
:103F1000F6E0BD48C07958B30020BB49C871BF481E
:103F2000D0ED1E4AB0EE644AD0ED1F4AF0EE643A7E
:103F3000D0ED1D4AB0EE643AD0ED1A4AF0EE642A94
:103F4000D0ED1B4AB0EE642AD0ED194AF0EE641AA7
:103F5000D0ED164AB0EE641AD0ED174AF0EE640ABE
:103F6000D0ED154AB0EE640A0120FEF7BEFFC7E0AF
:103F7000A548007A58B30020A3490872A848D0ED9C
:103F80001E4AB0EE644AD0ED1F4AF0EE643AD0ED1E
:103F90001D4AB0EE643AD0ED1A4AF0EE642AD0ED34
:103FA0001B4AB0EE642AD0ED194AF0EE641AD0ED47
:103FB000164AB0EE641AD0ED174AF0EE640AD0ED5E
:103FC000154AB0EE640A0220FEF78FFF98E08E4893
:103FD000407A58B300208C4948729248D0ED214A6B
:103FE000B0EE644AD0ED224AF0EE643AD0ED204AB9
:103FF000B0EE643AD0ED1D4AF0EE642AD0ED1E4AD0
:10400000B0EE642AD0ED1C4AF0EE641AD0ED194AE5
:10401000B0EE641AD0ED1A4AF0EE640AD0ED184AF8
:10402000B0EE640A0320FEF760FF69E07648807A0C
:10403000F8B10020744988727A48D0ED251AB0EEA4
:10404000611AD0ED261AF0EE610AD0ED241AB0EE16
:10405000610A1FED994A5FED9A3A1FED9B3A5FEDB9
:104060009C2A1FED9D2A5FED9E1A0420FEF73DFF5E
:1040700046E06548C07AC0B100206349C8721FEDB0
:10408000A44A5FEDA53A1FEDA63A5FEDA72A1FED02
:10409000A82A5FEDA91A1FEDAA1A5FEDAB0A1FED62
:1040A000AC0A0520FEF721FF2AE05748007BC0B18B
:1040B0000020554908731FEDB24A5FEDB33A1FED7A
:1040C000B43A5FEDB52A1FEDB62A5FEDB71A1FEDC2
:1040D000B81A5FEDB90A1FEDBA0A0620FEF705FF10
:1040E0000EE04948C07C02280AD100204649C87425
:1040F0001FEDC10A00231A4619461846FEF764FE52
:1041000001F051F806B010BD10B50023002204E004
:10411000845C1C44E3B2541CE2B24C1E9442F7DCB3
:10412000421812F8012C9A4200D010BD0278AA2A37
:1041300002D14278AF2A00D0F7E78278012A09D16C
:104140000279120212B244792243374C22808279DA
:10415000364C227000BFE8E770B52DED048B0446A5
:104160000E460025002004E0215C2944CDB2411C0C
:10417000C8B2711E8142F7DCA01910F8010CA842E8
:1041800002D0BDEC048B70BD2078AA2802D16078E3
:10419000AF2800D0F5E7A078012822D120790128A6
:1041A00002D1184908701CE02079022803D10120AF
:1041B0001449487015E02079032804D101201149E1
:1041C000087048700DE02079042803D101201849B7
:1041D000087006E02079212802DB2079262800DDFE
:1041E00000BFA07802282DD12079012806D10649E8
:1041F000C871087248728872C87208732079A02842
:104200001BD117E0A4350020742B0020403700207C
:10421000E43A0020FC2B002014000020EC280020B1
:10422000B0290020B80700206604002068040020A0
:10423000150600200120FE49C8702079A12801D16F
:10424000FCF7C0FAA078032836D1FA480078012894
:1042500002D0022000F03BFF2079617941EA002082
:10426000F5498880A079E17941EA0020F249C880C7
:10427000207A617A41EA0020EF490880A07AE17A49
:1042800041EA0020EC494880207B617B41EA002024
:10429000E9490881A07BE17B41EA0020E6494881A9
:1042A000207C617C41EA0020E3498881A07CE17C9C
:1042B00041EA0020E049C881A07810287DD1217909
:1042C000090209B2627941EA020011F00BFB41ECEC
:1042D000190B9FEDDA0B53EC102B11F091FA41EC16
:1042E000180B11F053FBD7494865A179090209B2AF
:1042F000E27941EA020011F0F5FA41EC190B9FED69
:10430000CF0B53EC102B11F07BFA41EC180B11F092
:104310003DFBCC49C865217A090209B2627A41EABB
:10432000020011F0DFFA41EC190B9FEDC40B53ECC6
:10433000102B11F065FA41EC180B11F027FBC14965
:104340008865A17A090209B2E27A41EA020011F015
:10435000C9FA41EC190B9FEDB90B53EC102B11F07E
:104360004FFA41EC180B11F011FBB6494866217B5E
:10437000090209B2627B41EA020011F0B3FA41EC92
:10438000190B9FEDAE0B53EC102B11F039FA41ECE9
:10439000180B11F0FBFA0146AA48C166A17B09027D
:1043A00009B2E27B41EA020011F09CFA41EC190BE0
:1043B0009FEDA20B53EC102B00E05CE011F020FA13
:1043C00041EC180B11F0E2FA01469E488166217C0F
:1043D000090209B2627C41EA020011F083FA41EC61
:1043E000190B9FED960B53EC102B11F009FA41ECD1
:1043F000180B11F0CBFA93494867A17C090209B266
:10440000E27C41EA020011F06DFA41EC190B9FEDDC
:104410008B0B53EC102B11F0F3F941EC180B11F04E
:10442000B5FA01468748C167217D090209B2627D5C
:1044300041EA020011F056FA41EC190B9FED7F0B97
:1044400053EC102B11F0DCF941EC180B11F09EFA33
:1044500001467C4881677648807838B901207449E4
:104460008870A0787849087078480570FCF7A4F93E
:10447000012077490880A07811287DD1217909028F
:1044800009B2627941EA020011F02CFA41EC190BF1
:104490009FED6A0B53EC102B11F0B2F941EC180BA5
:1044A00011F074FA6B494865A179090209B2E27901
:1044B00041EA020011F016FA41EC190B9FED5F0B77
:1044C00053EC102B11F09CF941EC180B11F05EFA33
:1044D0006049C865217A090209B2627A41EA02009C
:1044E00011F000FA41EC190B9FED540B53EC102B1B
:1044F00011F086F941EC180B11F048FA554988651E
:10450000A17A090209B2E27A41EA020011F0EAF95D
:1045100041EC190B9FED490B53EC102B11F070F986
:1045200041EC180B11F032FA4A494866217B090226
:1045300009B2627B41EA020011F0D4F941EC190B97
:104540009FED3E0B53EC102B11F05AF941EC180B78
:1045500011F01CFA01463F48C166A17B090209B26D
:10456000E27B41EA020011F0BDF941EC190B9FED2D
:10457000330B53EC102B00E071E011F041F941ECEA
:10458000180B11F003FA014632488166217C0902BA
:1045900009B2627C41EA020011F0A4F941EC190B66
:1045A0009FED260B53EC102B11F02AF941EC180B60
:1045B00011F0ECF927494867A17C090209B2E27CB5
:1045C00041EA020011F08EF941EC190B9FED1B0B33
:1045D00053EC102B11F014F941EC180B11F0D6F933
:1045E00001461C48C167217D090209B2627D41EA8A
:1045F000020011F077F941EC190B9FED100B53EC11
:10460000102B11F0FDF841EC180B11F0BFF9014629
:10461000104881670648807838B9012004498870BD
:10462000A0780949087009480570FCF7C5F813E03F
:10463000742B002085040020BA2B0020FCA9F1D2A5
:104640004D62503FEC2800206404002065040020E7
:104650006A040020B02900200120E5490880A078E4
:1046600012287CD12179090209B2627941EA02005B
:1046700011F038F941EC190B1FED100B53EC102B16
:1046800011F0BEF841EC180B11F080F9D949086619
:10469000A179090209B2E27941EA020011F022F996
:1046A00041EC190B1FED1B0B53EC102B11F0A8F86C
:1046B00041EC180B11F06AF9CE498866217A09029B
:1046C00009B2627A41EA020011F00CF941EC190BCF
:1046D0001FED260B53EC102B11F092F841EC180B48
:1046E00011F054F9C3494866A17A090209B2E27A85
:1046F00041EA020011F0F6F841EC190B1FED310B05
:1047000053EC102B11F07CF841EC180B11F03EF932
:10471000B8490867217B090209B2627B41EA0200BD
:1047200011F0E0F841EC190B1FED3C0B53EC102B92
:1047300011F066F841EC180B11F028F9AD498867C3
:10474000A17B090209B2E27B41EA020011F0CAF83A
:1047500041EC190B1FED470B53EC102B00E05CE014
:1047600011F04EF841EC180B11F010F9A14948670F
:10477000217C090209B2627C41EA020011F0B2F820
:1047800041EC190B1FED530B53EC102B11F038F8C3
:1047900041EC180B11F0FAF89649C1F88000A17CA1
:1047A000090209B2E27C41EA020011F09BF841ECF7
:1047B000190B1FED5E0B53EC102B11F021F841EC9F
:1047C000180B11F0E3F88B49C1F88800217D09022C
:1047D00009B2627D41EA020011F084F841EC190B44
:1047E0001FED6A0B53EC102B11F00AF841EC180B7B
:1047F00011F0CCF87F49C1F884007F48807838B93F
:1048000001207D498870A0787C4908707C4805703B
:10481000FBF7D2FF012076490880A078132854D1F5
:104820002179090209B2627941EA020011F05AF8CD
:1048300041EC190B1FED7F0B53EC102B10F0E0FF38
:1048400041EC180B11F0A2F86A49C1F89000A17967
:10485000090209B2E27941EA020011F043F841ECA1
:10486000190B1FED8A0B53EC102B10F0C9FF41EC14
:10487000180B11F08BF85F49C1F89800217A0902F2
:1048800009B2627A41EA020011F02CF841EC190BEE
:104890001FED960B53EC102B10F0B2FF41EC180BF0
:1048A00011F074F85349C1F894005348807838B92E
:1048B000012051498870A07850490870504805700F
:1048C000FBF77AFF01204A490880A07814280AD112
:1048D0004948807838B9012047498870A07847490D
:1048E000087047480570A07815280AD1424880789A
:1048F00038B9012040498870A07840490870404884
:10490000057000BF3DE470B504460D4629462046BB
:10491000FFF722FC70BD10B504463A48007838B95C
:10492000AA2C05D1012037490870374804705DE092
:1049300034480078012807D1AF2C05D10220314935
:1049400008703148447051E02E480078022807D1A1
:10495000F12C05DA03202B4908702B48847045E0C0
:104960002848007803280CD1322C0ADA0420254983
:1049700008702548C4702548047000202449087038
:1049800034E020480078042819D120480078002815
:1049900015DD1E480078401E1C4908701C48007830
:1049A0001B490978491C1A4A1170001D16490C54FC
:1049B00016480078D0B905201249087016E0114851
:1049C000007805280FD100200E49087010480078A3
:1049D000001D0D490C540E480078401DC1B20A4814
:1049E000FFF791FF02E000200649087010BD0000AB
:1049F0006A040020B8070020742B00206404002003
:104A00006504002078040020CA2B002076040020D2
:104A1000770400200246002007E0FE4B1B5632F8C8
:104A2000133021F81030431CD8B20828F5DB70474A
:104A3000F94890ED021ADFEDF91AB4EEE11AF1EE41
:104A400010FA55D20120F6490870F34890ED031A88
:104A5000DFEDF21AB4EEE11AF1EE10FA1AD2F148D3
:104A6000B0F90000401CC8B3EF480078B0B3ED487F
:104A7000B0F9000001EE100AB8EEC11ADFEDEB1A32
:104A800001EE801ABDEEC11A11EE100A00B2E5491E
:104A9000088032E0E04890ED031ADFEDE51AB4EE4D
:104AA000E11AF1EE10FA1ADDDE48B0F90000401C00
:104AB000A0B1DD48007888B9DA48B0F9000001EE0D
:104AC000100AB8EEC11ADFEDD91A01EE801ABDEE58
:104AD000C11A11EE100A00B2D24908800DE0D14887
:104AE000B0F90000401C40B90020CE49088004E025
:104AF0000020CC490880CA490870CA48B0F90000B3
:104B0000B0F5967F12DD4FF0FF30C6490880C648E9
:104B1000007840B90120C44908700220C549487096
:104B2000C549087002E00020BF490870BA4890EDFE
:104B3000021ADFEDBA1AB4EEE11AF1EE10FA37D22A
:104B400090ED031ADFEDB51AB4EEE11AF1EE10FAAA
:104B50002ED290ED001ADFEDB61AB4EEE11AF1EEA6
:104B600010FA25DD90ED011ADFEDB11AB4EEE11A6D
:104B7000F1EE10FA1CDDB148B0F90000B0F5FA6FA3
:104B800012DAAE48B0F9000001EE100AB8EEC11A10
:104B9000DFEDA61A01EE801ABDEEC11A11EE100A61
:104BA00000B2A649088006E00120A549087002E08D
:104BB0000020A24908809C48007888B39848007873
:104BC00001282ED1F5EEC00AF1EE10FA02DDB0EEAA
:104BD000601A01E0B1EE601ADFED9A1AB4EEE11A44
:104BE000F1EE10FA1DD29848B0F90000B0F5FA6F56
:104BF00012DA9548B0F9000001EE100AB8EEC11AB9
:104C0000DFED8A1A01EE801ABDEEC11A11EE100A0C
:104C100000B28D49088007E000208349087003E056
:104C2000FFE700208849088070473FB5B0EE402A72
:104C3000054686480078012804D185492846FFF7B3
:104C4000E9FE07E081480078022803D180498148C5
:104C5000FFF7E0FE002423E27D4830F8140040F620
:104C6000C411884205DC7A4830F81400B0F5FA7FA8
:104C700007DA0120784908550020784921F8140006
:104C800012E0764830F81400401C744921F81400F2
:104C9000084630F81400C82806DD4FF4FA6021F801
:104CA000140000206C49085568480078012803D09A
:104CB0006648007802287CD16748005D002879D1D9
:104CC000634830F8140000B22DF81400644830F93D
:104CD0001400644931F9141088426CDD6248005DAB
:104CE000002879D13DF914005E4931F91410401AB9
:104CF00000EE100AB8EEC01A594830F914005949AC
:104D000031F91410401A00EE100AB8EEC00AC1EED4
:104D1000000A9FED461A9FED550A10EE810ABDEE7E
:104D2000C00A10EE100A00B210F5FA7F01DA5048FE
:104D30004EE03DF914004B4931F91410401A00EED1
:104D4000100AB8EEC01A464830F91400454931F946
:104D50001410401A00EE100AB8EEC00AC1EE000AA4
:104D60009FED321A9FED410A10EE810ABDEEC00A96
:104D700010EE100A00B2B0F5FA7F02DD4FF4FA70BF
:104D800026E03DF91400374931F91410401A00EEBD
:104D9000100AB8EEC01A324830F91400314931F91E
:104DA0001410401A00EE100AB8EEC00AC1EE000A54
:104DB00003E0C2E0BDE0B9E00EE09FED1C1A9FEDFC
:104DC0002B0A10EE810ABDEEC00A10EE100A00B2E6
:104DD000284921F81400ACE03DF91400214931F9CB
:104DE0001410401A00EE100AB8EEC01A1C4830F930
:104DF00014001C4931F91410401A00EE100AB8EEE4
:104E0000C00AC1EE000A9FED091A9FED180A10EEC4
:104E1000810A31E07C0400202C2C00200000C8C353
:104E2000BD040020BE040020BC04002000007A4421
:104E30000000C843A435002054000020C004002016
:104E40001506002000009643C204002085040020BF
:104E50009C2C0020BA2B0020860400208C2C0020E3
:104E600090040020A0040020B00400200000FA43B9
:104E70000CFEFFFFFC2B0020BDEEC00A10EE100A56
:104E800000B210F5FA7F01DA944849E03DF91400C8
:104E9000934931F91410401A00EE100AB8EEC01A06
:104EA000904830F914008E4931F91410401A00EE80
:104EB000100AB8EEC00AC1EE000A1FED241A1FED59
:104EC000150A10EE810ABDEEC00A10EE100A00B2FB
:104ED000B0F5FA7F02DD4FF4FA7021E03DF91400DD
:104EE0007F4931F91410401A00EE100AB8EEC01ACA
:104EF0007C4830F914007A4931F91410401A00EE58
:104F0000100AB8EEC00AC1EE000A1FED381A1FEDF4
:104F1000290A10EE810ABDEEC00A10EE100A00B296
:104F2000404200B2704921F8140002E000206F49AD
:104F3000087000206E49087002E001206C4908707A
:104F40009FED6C0A22EE000A6B4880ED000A3DF9E5
:104F5000140000EE100AB8EEC00A684800EB8400A6
:104F6000D0ED000A30EE600AB5EEC00AF1EE10FA9C
:104F70000DDD3DF9140000EE100AB8EEC00A5F48DE
:104F800000EB8400D0ED000A30EE600A0EE03DF93F
:104F9000140000EE100AB8EEC00A584800EB840076
:104FA000D0ED000A30EE600AB1EE400ADFED540A9F
:104FB000B4EEE00AF1EE10FA1DD24B4830F91400BD
:104FC00000EE100AB8EEC00A4C4800EB8400D0EDA9
:104FD000000A70EE600A494800EB840090ED000A78
:104FE000454890ED001A01EE200A444800EB840089
:104FF00080ED000A20E03C4830F9140000EE100A71
:10500000B8EEC00A3D4800EB8400D0ED000A70EE17
:10501000600A3A4800EB840090ED000A364890EDB3
:10502000001AF6EE001A21EE211A01EE200A33488A
:1050300000EB840080ED000A3248007838B92B4834
:10504000007820B99FED300A2C4880ED020A2B48E9
:1050500000EB840090ED000A2C4800EB8400D0EDBA
:10506000000A30EE600A2A4800EB840080ED000A56
:10507000224800EB840090ED000A244800EB8400F5
:1050800080ED000A184830F9140000EE100AB8EE5E
:10509000C00A204800EB840080ED000A601CC4B206
:1050A000082CFFF6D9AD1C48D0ED000AB0EE420A3C
:1050B000FFF7BEFC19480088401C80B217490880E1
:1050C000C82803DD002008800E4908703FBD0D4947
:1050D00008700021114A1180704700000CFEFFFF8C
:1050E000A004002090040020FC2B0020BC04002021
:1050F0008404002034337B42B80400202C2C002090
:105100000000C842850400200000FAC34C2C002097
:105110006C2C00200C2C0020780500208E04002030
:105120000DF0EABC70470020704700207047002057
:105130007047002070470020704700207047002013
:105140007047002070470020704700207047002003
:1051500070470020704700207047002070470DF016
:10516000F2BC704700207047002070470DF036BB3E
:105170007047000010B50CF035FD01200CF03DFD2E
:1051800010BD70B5024600200AE0145C864B1D7805
:105190001B785B1C844E3370844B5C55431CD8B227
:1051A0008842F2DB70BD10B57F48007880490978ED
:1051B00088425BDD7C4800787D490978401A3F28A9
:1051C0001BDB00207B4908703F207B4908700020D2
:1051D0000BE077490A780978491C754B19707349B7
:1051E0008A5C754B411C5A54C8B23F28F1DB4022FF
:1051F000714900200DF08DFD9FE06E480078401C45
:105200006C490870084600786C4909788842F3D1E7
:105210000020684908706448007865490978401A98
:1052200065490870002015E05F490978604A1278E6
:10523000891A814208DD5E49097801445B4A525C63
:105240005D4B411C5A5403E000225B4B411C5A54F5
:10525000411CC8B23F28E7DB534800785449087026
:105260004022554900200DF054FD66E04E4800787C
:105270004F490978884260DA4D480078C0F580705F
:105280004949097808443F281BDB00204949087038
:105290003F204949087000200BE045490A78097809
:1052A000491C434B197041498A5C434B411C5A5479
:1052B000C8B23F28F1DB40223F4900200DF029FD14
:1052C0003BE03C480078401C3A49087008460078AA
:1052D0003A490978884230D100203649087034486C
:1052E000007840423049097808443349087000206A
:1052F00018E02F490978C1F580712B4A12781144C2
:10530000814209DD2A4909780144C9B2274A525C21
:10531000294B411C5A5403E00022274B411C5A548C
:10532000411CC8B23F28E4DB1F48007820490870C0
:105330004022214900200DF0ECFC10BD10B50446C0
:10534000012C02D0032C11D10EE059B923B1012B4D
:1053500005D0022B04D100E000BF402010BD00BFEB
:1053600000BF00BF00BF01E00120F7E700BF002041
:10537000F4E72DE9F0470646884614469946089F0B
:10538000022E02D0032E0CD10AE0012504E0605D5C
:10539000FFF7C1FA681CC5B22078A842F7DA00E02E
:1053A00000BF00BFBDE8F087CF040020D02F002051
:1053B000CE040020D0040020D0300020CD040020F6
:1053C00010B5054810F06EF9022101EB4000C0B2A3
:1053D00010BD024870470000143100202D3100201C
:1053E0009FEDFA2A20EE822A62EE012AB7EE003AF9
:1053F00083EE222AF7EE002A32EE222AB7EE003A96
:10540000C3EE022A90ED032A31EEC22A90ED003A53
:1054100032EE433A90ED002A02EE832A80ED002A14
:1054200090ED032A31EEC22A22EE022A80ED012AF3
:1054300090ED012AD0ED002A90ED003A02EE832A89
:10544000B5EEC02AF1EE10FA02D1DFEDE12A0DE04F
:1054500090ED002A22EE023A90ED012AD0ED002ACA
:10546000D0ED003A02EEA32AC3EE022AF5EEC02ADE
:10547000F1EE10FA02D2DFEDD62A45E090ED012AD6
:10548000D0ED002A90ED003A02EE832AB5EEC02A54
:10549000F1EE10FA02D1DFEDCE2A0DE090ED002AF8
:1054A00022EE023A90ED012AD0ED002AD0ED003A2A
:1054B00002EEA32AC3EE022AB7EE002AF4EEC22AB5
:1054C000F1EE10FA02DDF7EE002A1DE090ED012A60
:1054D000D0ED002A90ED003A02EE832AB5EEC02A04
:1054E000F1EE10FA02D1DFEDBA2A0DE090ED002ABC
:1054F00022EE023A90ED012AD0ED002AD0ED003ADA
:1055000002EEA32AC3EE022AC0ED022A90ED022A7F
:1055100022EE002ADFEDAD2A22EE222A22EE012A17
:10552000F7EE002A82EE823AB7EE002A33EE022A24
:10553000B7EE003AC3EE022A90ED032A31EEC23AEA
:1055400090ED032A02EE832A80ED032A704730B5DE
:105550000C4615886D1CADB21580A54201DB0025F7
:105560001580158800EB8505D5ED000A158800EB40
:10557000850585ED000A70EE601A01EE104AB8EE5E
:10558000412A81EE821AD3ED001A31EE211A83ED01
:10559000001A93ED001AD3ED001A70EE611A9FED18
:1055A0008D2A02EE211A83ED001A30BD2DE9F04755
:1055B00004460E469C460027B94633461088401CD8
:1055C00080B21080984201DB002010801188108882
:1055D00044F820C0581E884222DD19E054F821000A
:1055E00000EE900AB8EEE00A481C54F8200044F897
:1055F0002100FDEEC00A10EE900A01F1010A44F804
:105600002A000127481C81B2581E884200D106E0BA
:1056100054F821A0481C54F820008245DEDC00BF6D
:10562000002923DD1AE054F8210000EE900AF8EE7C
:10563000E00AB0EE600A481E54F8200044F8210049
:10564000FDEEC00A10EE900AA1F1010A44F82A000A
:105650004FF0FF37481E81B201B906E054F821A08F
:10566000481E54F820008245DDDB00BF108820B9B9
:10567000012F02D1581E10800CE0B2F800A0581E75
:10568000824504D1781C10B90020108002E01088F7
:10569000C01B108000EE903AF8EE600AB5EE001ADA
:1056A00060EE810AFCEEE00A10EE900A1FFA80F824
:1056B000002506E008EB050054F820008144681C32
:1056C00085B203EBD37AB5EB6A0FF3DB9A4603EBB3
:1056D000DA70401099FBF0F0BDE8F08770B5044631
:1056E0000D461646D4ED020A60EEA00A94ED011AAA
:1056F000D4ED011A41EE210AB0EE600AFDF756F82A
:10570000354880ED000AD4ED020A60EEA00A94ED5F
:10571000001AD4ED001A41EE210AB0EE600AFDF73E
:1057200045F82E4880ED000A94ED020AB5EEC00A55
:10573000F1EE10FA02D24FF0FF3000E001202849CC
:10574000087095ED000A2448D0ED000A60EE200AAA
:1057500094ED001A084690F9000000EE100AB8EE29
:10576000C00A21EE000A95ED021A40EE410AC6ED8C
:10577000000A084690F9000000EE100AB8EEC00AD0
:105780001648D0ED000A20EE200AD5ED010A20EEE1
:10579000200AD4ED010A95ED021A00EEC10A86ED49
:1057A000010A94ED000AD5ED000A20EE200AD4ED9E
:1057B000010A95ED011A00EE810AD4ED020A95ED79
:1057C000021A00EE810A86ED020A70BDC3F5C840D8
:1057D00000000000ACC52737D8040020DC040020FE
:1057E000D4040020F0EE400A40B9FE4991ED050ACC
:1057F000FD4981ED000A0021FC4A1170FC4909783D
:1058000001290FD1FB49097861B9FB498978012940
:1058100008D1FA49097829B9F449097811B901215F
:10582000F24A1170F1490978012902D002291FD1E9
:1058300007E0F3490978012902D10221EB4A1170EE
:1058400017E0E84991ED050AE74991ED001A30EEBD
:10585000410A9FEDEC1AB4EEC10AF1EE10FA06DD32
:10586000E2490978022902D10321E04A117000BF00
:1058700000BF00BFDD490978022905D19FEDE20A8A
:10588000E24981ED000A0CE0D8490978032908D1E2
:10589000DE4991ED000A9FEDDC1A01EE600A81ED10
:1058A000000ADA4991ED000AB5EEC00AF1EE10FAED
:1058B00002D29FEDD70A0FE0D44991ED000A9FED87
:1058C000D51AB4EEC10AF1EE10FA02DD9FEDD10A4D
:1058D00002E0CE4991ED000ACC4981ED000AC649AB
:1058E0008978C64A1170C94991ED000A70479FED49
:1058F000CA0ACA4880ED000AC94890ED180ADFEDCF
:10590000C90A20EE200AC54880ED010A9FEDC00AB1
:1059100080ED020A9FEDBE0A80ED030A9FEDBC0AEE
:1059200080ED040A9FEDBA0A80ED050A9FEDBE0ADC
:1059300080ED060ABA4890ED180AF7EE080A20EE44
:10594000200ABA4880ED000AB54890ED1A0ADFED4A
:10595000B00A20EE200AB54880ED010A9FEDAC0A9E
:1059600080ED020AAE4890ED190ADFEDB10A20EE93
:10597000200AAE4880ED030AB3EE040A80ED040A63
:105980009FEDAC0A80ED050AB6EE000A80ED060A2E
:10599000A34890ED1C0AF7EE080A20EE200AA6485C
:1059A00080ED000A9E4890ED1E0ADFED990A20EE78
:1059B000200AA14880ED010A994890ED1D0ADFED0B
:1059C0009A0A20EE200A9C4880ED020A9FED920A76
:1059D00080ED030AB3EE040A80ED040AB6EE000A75
:1059E00080ED050A9FED8A0A80ED060A704710B522
:1059F0002DED068BB0EE408AB0EE609A0446F0EED4
:105A0000418A84B900208D4908708D4908709FED46
:105A1000800AF0EE408A9FED7E0A8A4880ED000AF7
:105A200000207749087088480078052815D2DFE8FB
:105A300000F00304080C100010E0022082490870F6
:105A40000CE003208049087008E004207E490870BB
:105A500004E000207C49087000E000BF00BF7B48E4
:105A600090ED000A38EEC00AB5EEC00AF1EE10FA69
:105A700004DD90ED000A38EEC00A06E0734890EDB0
:105A8000000A38EEC00AB1EE400AF6EE000AB4EEA3
:105A9000E00AF1EE10FA1BDD6A4890ED000AF2EE22
:105AA000040AB4EEE00AF1EE10FA0ED2684890ED66
:105AB000000ADFED680AB4EEE00AF1EE10FA04DD48
:105AC0009FED650A5F4880ED000A6048C0ED008ADE
:105AD000DFED4C0A79EE600AB0EE600A9FED5F1AC6
